:100000000C942A000C94AF000C94AF000C94AF0039
:100010000C94AF000C94AF000C94AF000C94AF00A4
:100020000C94AF000C94AF000C94AF000C94AF0094
:100030000C94AF000C94AF000C94AF000C94AF0084
:100040000C94AF000C94AF000C94AF000C94AF0074
:100050000C94AF0011241FBECFE5D4E0DEBFCDBFAE
:0C0060000E9436000C943400F894FFCF8E
:10006C0017BA88E081BB84E884BB80E090E00E94F2
:10007C006900019729F482E090E00E94990004C085
:10008C0082E090E00E94810084E090E00E94690090
:10009C00019729F487E090E00E94990004C087E062
:1000AC0090E00E94810082E090E00E947500019730
:1000BC0029F483E090E00E94A400D7CF83E090E085
:0600CC000E948D00D2CF5E
:1000D20026B330E0A90102C0559547958A95E2F70B
:0800E200CA01817099270895FD
:1000EA0020B330E0A90102C0559547958A95E2F7F9
:0800FA00CA01817099270895E5
:1001020095B321E030E002C0220F331F8A95E2F757
:080112002095292325BB089567
:10011A0092B321E030E002C0220F331F8A95E2F742
:08012A002095292322BB089552
:1001320095B321E030E002C0220F331F8A95E2F727
:06014200292B25BB0895E6
:1001480092B321E030E002C0220F331F8A95E2F714
:06015800292B22BB0895D3
:04015E000C940000FD
:00000001FF
